:020000040800F2
:100000006007002089010008750F0008710F0008C3
:10001000730F0008CF0200084F1100080000000015
:100020000000000000000000000000006510000853
:10003000D102000800000000770F000867100008D8
:10004000A3010008A3010008A3010008A301000800
:10005000A3010008A3010008A3010008A3010008F0
:10006000A3010008A3010008A3010008A3010008E0
:10007000A3010008A3010008A3010008A3010008D0
:10008000A3010008A3010008A3010008A3010008C0
:10009000A3010008A3010008A3010008A3010008B0
:1000A000A3010008A3010008A3010008A3010008A0
:1000B000A3010008A3010008A3010008A301000890
:1000C000A3010008A3010008A3010008A301000880
:1000D000A3010008A3010008A3010008A301000870
:1000E000A3010008A3010008A301000800F002F822
:1000F00000F03AF80AA090E8000C82448344AAF188
:100100000107DA4501D100F02FF8AFF2090EBAE885
:100110000F0013F0010F18BFFB1A43F0010318473B
:10012000F827000018280000103A24BF78C878C1CA
:10013000FAD8520724BF30C830C144BF04680C60ED
:10014000704700000023002400250026103A28BF35
:1001500078C1FBD8520728BF30C148BF0B60704739
:100160001FB51FBD10B510BD00F07CF81146FFF79C
:10017000F7FF01F021FB00F09AF803B4FFF7F2FF5C
:1001800003BC00F09DF8000009488047094800477B
:10019000FEE7FEE7FEE7FEE7FEE7FEE7FEE7FEE737
:1001A000FEE7FEE704480549054A064B7047000094
:1001B0006B100008ED0000086001002060070020BF
:1001C000600300206003002010B5431C02E010F81B
:1001D000011B71B18107FAD14FF0013202C88C1AAC
:1001E0008C4314EAC211F9D0C01A0A0603D0C01E0B
:1001F00010BDC01A10BD0A0401D0801E10BD090236
:10020000FCD0401E10BD4FF0000200B513469446CE
:100210009646203922BFA0E80C50A0E80C50B1F15E
:100220002001BFF4F7AF090728BFA0E80C5048BF72
:100230000CC05DF804EB890028BF40F8042B08BF10
:10024000704748BF20F8022B11F0804F18BF00F80C
:10025000012B704770477047704700000048704797
:10026000000100207546FFF7F9FFAE46050069461C
:10027000534620F00700854618B020B5FFF792FFDF
:10028000BDE820404FF000064FF000074FF0000897
:100290004FF0000B21F00701AC46ACE8C009ACE818
:1002A000C009ACE8C009ACE8C0098D46704710B57C
:1002B0000446AFF300802046BDE81040FFF75DBF65
:1002C00001491820ABBEFEE7260002007047FEE79A
:1002D0007047000070B5044600F008F90546601C40
:1002E00002D004480078044400F000F9401BA0420A
:1002F000FAD370BD000000202DE9F84FDFF8B89167
:100300000024A9F1040B23460F2709F1040AABF1DD
:10031000040EC9E00125A5402A40AA427DD1674EBE
:10032000D1F804C0ACEB0608B44532D014DCBCF103
:10033000030F3AD009DCBCF1000F2AD0BCF1010F49
:100340001CD0BCF1020F31D11DE0BCF1110F17D050
:10035000BCF1120F2AD119E0B8F5881F19D006DCBC
:10036000B8F5803F15D0B8F5801F1FD111E0B8F562
:10037000001F0ED0B8F5041F18D10AE0CB6815E0B5
:10038000CB681B1D12E0CB6808330FE0CB680C3341
:100390000CE08B682BB1012B4FF0080303D04561B3
:1003A00004E0042302E0056100E00023FF2A01D8F5
:1003B000064601E000F104064FEA840501D9A5F1E3
:1003C0002005D6F8008007FA05FC28EA0C0803FA95
:1003D00005F548EA0508C6F800804D68ED0062D5CD
:1003E000374DAE6946F00106AE61AD6924F00306F3
:1003F00005F001050095334D06EB050CDCF80850BF
:10040000A607360F07FA06F825EA0805DFF8B880D0
:10041000404503D14FF0000817E044E0DFF8AC801E
:10042000404502D14FF001080FE0DFF8A4804045BD
:1004300002D14FF0020808E0DFF89880404502D171
:100440004FF0030801E04FF0040808FA06F848EA04
:100450000508CCF808804D68D9F80060ED024D46DB
:1004600001D5164300E096432E604D68DAF800602F
:10047000AD02554601D5164300E096432E604D6807
:10048000DBF80060AD035D4601D5164300E09643FE
:100490002E604D68DEF80060ED03754601D5164309
:1004A00000E096432E60641C0D682A46E5407FF408
:1004B00031AFBDE8F88F00000804014000001110C2
:1004C000001002400000014000080140000C014003
:1004D00000100140001401408068084000D0012055
:1004E00070470AB1016170470904FBE70148806861
:1004F0007047000000000020024881680278114423
:100500008160704700000020074810B5016841F085
:1005100010010160032000F067F80F2000F006F8DA
:1005200000F024F8002010BD0020024070B50D4DF1
:1005300004464FF47A712878B1FBF0F00A49096853
:10054000B1FBF0F000F0F3FB48B9102C07D2002209
:100550002146501E00F028F800206C6070BD01207C
:1005600070BD0000000000200C0000200C4808B501
:10057000816941F001018161816901F0010100910E
:10058000C16941F08051C161C06900F080500090A4
:100590000448416821F0E06141F00071416008BD0C
:1005A0000010024000000140F0B40E4B1B680C46E6
:1005B000C3F30223C3F10705042D00D90425191D37
:1005C000072901D2002300E0DB1E012606FA05F10F
:1005D000491E214099409E40761E16403143F0BC92
:1005E00000F0B6BD0CED00E0064900F00702086817
:1005F0004FF6FF03184040EA0220034A1043086008
:10060000704700000CED00E00000FA052DE9F0470E
:100610000F46050061D0434E306800F00700B84235
:1006200009D2306820F0070038433060306800F0AD
:100630000700B84251D128683B4C810712D54007CA
:1006400003D5606840F4E06060602878000703D557
:10065000606840F4605060606068A96820F0F00055
:10066000084360602878C00728D06868012810D047
:100670002168022810D0890700292EDA616821F04C
:10068000030101436160FFF731FF804641F2883981
:100690000DE021688903EFE78901EDE7FFF726FF09
:1006A000A0EB0801494502D90320BDE8F087606846
:1006B000696800F00C00B0EB810FEFD1306800F0FA
:1006C0000700B8420BD9306820F00700384330608B
:1006D000306800F00700B84201D00120E5E7287833
:1006E000400705D56068E96820F4E0600843606071
:1006F0002878000706D56068296920F4605040EA30
:10070000C100606000F018F86168084AC1F3031185
:10071000515CC8400649086006480068FFF706FFBC
:100720000020C2E70020024000100240FA2000082A
:100730000C000020040000200E4A51680E4801F011
:100740000C03042B11D0082B0FD10C48C1F38343A9
:10075000C903C05C0AD55168084AC1F34041921EE2
:10076000515C054A5043B0FBF1F0704704494843DF
:10077000704700000010024000127A00EA200008D2
:1007800000093D002DE9F84F040070D02078C04DDD
:10079000C00749D06868C0F38100012807D06868A5
:1007A000C0F38100022809D16868C00306D5286813
:1007B000800339D560680028E7D035E06068B0F57F
:1007C000803F0BD010B1B0F5A02F11D0286820F4D5
:1007D00080302860286820F4802002E0286840F4F7
:1007E00080302860606890B1FFF780FE06460AE01E
:1007F000286840F480202860F0E700BFFFF776FE0D
:10080000801B642873D828688003F7D50CE0FFF7B5
:100810006DFE064605E000BFFFF768FE801B6428FA
:10082000F0D828688003F7D420789A4E80074FF0DC
:1008300001094FF0000839D5686810F00C0F07D097
:100840006868C0F38100022809D16868C00306D433
:100850002868800714D52069012808D110E0206994
:10086000B0B1C6F80090FFF741FE074605E00AE187
:10087000FFF73CFEC01B0228C4D828688007F7D5C4
:100880002868616920F0F80040EAC10028600DE0A6
:10089000C6F80080FFF72AFE074604E0FFF726FEB1
:1008A000C01B022823D828688007F7D420780007C7
:1008B0002CD57948A169D9B1C0F80090FFF716FE90
:1008C000074604E0FFF712FEC01B02280FD8686A33
:1008D0008007F7D571484FF4FA510068B0FBF1F08A
:1008E000009000BF0098411E0091FAD20EE080E017
:1008F000C0F80080FFF7FAFD074604E0FFF7F6FDB9
:10090000C01B022875D8686A8007F7D42078400792
:1009100060D5E8690027C00008D4E86940F080503D
:10092000E861E869012700F0805000905C480168A8
:10093000C90513D40168834641F480710160FFF753
:10094000D5FD824606E000BFFFF7D0FDA0EB0A0010
:1009500064284ED8DBF80000C005F5D5E068012812
:100960000AD008B1052813D0286A20F001002862B7
:10097000286A20F0040002E0286A40F001002862A2
:10098000E06841F2883B98B1FFF7B0FD82460BE08A
:10099000286A40F004002862EEE700BFFFF7A6FDDA
:1009A000A0EB0A0159455AD8286A8007F6D50CE011
:1009B000FFF79CFD824605E0FFF798FDA0EB0A01DA
:1009C00059454CD8286A8007F6D41FB1E86920F051
:1009D0008050E861E06988B36968C1F38101022948
:1009E00044D00228C6F8608004D0FFF77FFD04469B
:1009F00038E034E0FFF77AFD074604E0FFF776FDC4
:100A0000C01B02282BD828688001F7D4206AB0F5D3
:100A1000803F05D16868A16820F400300843686011
:100A2000D4E908010843696821F474110843686037
:100A3000C6F86090FFF75AFD044606E025E000BFC7
:100A4000FFF754FD001B022809D828688001F7D55C
:100A50001BE000BFFFF74AFD001B022802D903205C
:100A6000BDE8F88F28688001F4D40EE00128F7D0A3
:100A70006868226A00F48031914204D1616A00F40E
:100A80007010884201D00120EAE70020E8E700006A
:100A90000010024000004242800442420C0000204C
:100AA0000070004070B5040009D0606A002540B1B4
:100AB00025616561A56294F8510040B10CE0012008
:100AC00070BD6068B0F5827FF4D0E561F2E784F82C
:100AD0005050204600F040F8022084F85100206871
:100AE000016821F040010160A088218900F4827032
:100AF00001F404410843A18901F400610843217C09
:100B000001F002010843217D01F001010843218B1E
:100B100001F400710843217F01F03801084394F883
:100B2000201001F080010843218D01F40051084399
:100B300021680860A069042101EA1040216848602A
:100B40002068C16921F40061C1616565012084F8F4
:100B50005100002070BD000030B585B00024009425
:100B600001940294039400681449884223D11448E4
:100B7000816941F480518161816901F4805104915E
:100B8000816941F00401816180690E4D00F004002B
:100B90000490A02000900220019003200390694659
:100BA0002846FFF7A9FB4020CDE900046946284606
:100BB0000294FFF7A1FB05B030BD000000300140FA
:100BC00000100240000801402DE9F84F98461646F3
:100BD0008A460446FFF78AFC814694F851000128B2
:100BE0001ED1BAF1000F73D0002E71D094F85000CE
:100BF000012815D0012784F85070032084F8510093
:100C000000256565C4F830A0A686E686A563A5879D
:100C1000E58765642564A068B0F5004F03D00CE05B
:100C20000220BDE8F88F2068016821F040010160D2
:100C30002068016841F4804101602068016849062C
:100C400003D4016841F040010160E068B0F5006F35
:100C5000606803D048B3012E27D047E008B1012EC9
:100C60001FD1206B21680088C86006E02068816879
:100C7000890709D5216B0988C160206B801C20631E
:100C8000E08E401EE0860CE0FFF730FCA0EB09018F
:100C9000414503D3B8F1FF3F03D035E0B8F1000F71
:100CA00032D0E08E0028E1D123E0206B216800786B
:100CB000087306E02068816889070AD5216B0978E6
:100CC0000173206B401C2063E08E401EE0860DE027
:100CD0002BE0FFF70BFCA0EB0901414503D3B8F172
:100CE000FF3F03D010E0B8F1000F0DD0E08E0028D8
:100CF000E0D14A464146204600F03EF908B12020A6
:100D00006065A06830B109E084F8517084F85050F3
:100D1000032086E72068C1688068009084F85170DD
:100D200004F8505F60680028F3D0012079E710B51F
:100D3000401EB0F1807F01D3012010BD4FF0E024B0
:100D400060610F21601700F003FA0020A061072006
:100D50002061002010BD000070B590F83C20012AF1
:100D600026D0012480F83C40022280F83D20036810
:100D70005A689D6822F070060A6832435A600D4B2B
:100D800002689A4208D0B2F1804F05D00A4B9A42CD
:100D900002D00A4B9A4204D1496825F080031943D6
:100DA000916080F83D40002180F83C10084670BDFD
:100DB000022070BD002C01400004004000080040EB
:100DC00010B5040003D094F83D0010B107E00120F5
:100DD00010BD002084F83C00204600F01FF80220DF
:100DE00084F83D00211D206800F040F9012084F8BE
:100DF000460084F83E0084F83F0084F8400084F800
:100E0000410084F8420084F8430084F8440084F8E8
:100E1000450084F83D00002010BD000008B50068C2
:100E20000649884208D10648816941F40061816120
:100E3000806900F40060009008BD0000002C0140B3
:100E40000010024090F83D10012901D001207047A8
:100E5000022180F83D1000680B49884208D0B0F1AB
:100E6000804F05D00949884202D00949884204D1FF
:100E7000816801F00701062903D0016841F00101F2
:100E80000160002070470000002C01400004004079
:100E90000008004070B5044690F83C000025012889
:100EA00017D0012684F83C60022084F83D002068B9
:100EB000826822F0770222F47F428260086850281C
:100EC00038D00DDC20284FD005DC90B3102811D18C
:100ED0004AE0022070BD302846D040280AD13BE0CD
:100EE00060282FD070280DD0B0F5805F03D0B0F50A
:100EF000005F12D0012584F83D60002084F83C009A
:100F0000284670BDCB68D1E90121206800F0EAF8DD
:100F10002068816841F0770109E0CB68D1E90121BF
:100F2000206800F0DFF82068816841F4804181602A
:100F3000E1E719E0CA684968206800F0E5F8502147
:100F4000206806E0CA684968206800F0EEF8602171
:100F5000206800F0D1F8CEE7CA684968206800F040
:100F6000D3F840212068F4E7226801461046F0E7F4
:100F7000FEE7FEE7FEE77047F8B515460E460B465E
:100F8000009204460122022100F010F840B93346D5
:100F9000002280212046009500F008F8002804D0A7
:100FA000606D40F0200060650320F8BD2DE9F84336
:100FB0001E46914688460446089DFFF797FA401B57
:100FC000351AFFF793FA074625480068C0F3CB307F
:100FD000684338E0701C37D0FFF788FAC01BA8427E
:100FE00003D215B1009860B32CE02068416821F06D
:100FF000E00141606068B0F5827F0BD1A068B0F578
:10100000004F02D0B0F5806F04D12068016821F054
:1010100040010160A06AB0F5005F09D12068016855
:1010200021F4005101602068016841F40051016021
:10103000012084F85100002084F850000320BDE80E
:10104000F8830025401E00902068816838EA01007E
:1010500004D000214945BDD10020F0E70121F9E786
:101060000C0000207047FFF747BA7047F0B50268E0
:10107000194B1A4C1A4D4FF08047984205D0B84290
:1010800003D0A04201D0A84203D122F070064A68E2
:101090003243984205D0B84203D0A04201D0A842C2
:1010A00003D122F44074CA6822434C6922F08002C2
:1010B000224302608A68C2620A688262984201D151
:1010C00009690163012141610169C90703D001690F
:1010D00021F001010161F0BD002C0140000400403D
:1010E0000008004010B5846842EA032224F47F44DB
:1010F0000A432243826010BD826822F070020A43D4
:1011000042F007018160704710B5036A046A24F059
:1011100001040462846924F0F00444EA021423F018
:101120000A020A438461026210BD10B5036A046AB0
:1011300024F010040462846923F0A00324F47044B2
:1011400044EA023243EA01118261016210BDFEE706
:101150000907090E002804DB00F1E02080F80014E4
:10116000704700F00F0000F1E02080F8141D704778
:101170002DE9FE4307463448017809B1407810B1A3
:101180000320BDE8FE83304C4FF6FF79E41E207843
:10119000402802D24FF47E4000E0484680460026B8
:1011A0000025607842462844C1B220783044C0B25D
:1011B00000F09CF96D1CEDB2042DF2D3761CF6B252
:1011C000042EEDD30025A04600247E1998F80100D6
:1011D0001F222044C1B2F0B200F088F9641CE4B2CE
:1011E000042CF3D36D1CEDB2042DEDD3174D402F1D
:1011F00008D200F0C1F81F21CDE90119A86814A197
:10120000009018E000F0A8F80A214C46132332227F
:101210000846CDF8009000F0BFF9132376220A218A
:101220004E20009400F0B8F94FF4FC60CDE90104C1
:10123000A8680AA10090D5E900230A2000F084F9EB
:1012400088F8007000209CE7130000201C0000209C
:1012500044414E4745524F555300000053414645C7
:101260000000000010B500F051FA00F0DFF900F0C6
:10127000E7F800F057F803480121017000214170A0
:10128000084610BD1300002010B5084800F084F88F
:10129000064C0749083CA06800F0EAFD00F0B4FDE8
:1012A000C0B2A070FFF764FF002010BD180000203E
:1012B0000000204130B585B0002418480094019406
:1012C00002940394816941F020018161816901F0F8
:1012D00020010491816941F004018161816901F07B
:1012E00004010491816941F00801816180690C4D1C
:1012F00000F008000490002210212846FFF7F1F8C2
:10130000102000900120CDE90104022003906946DD
:101310002846FEF7F1FF05B0002030BD0010024066
:10132000000C014010B5FFF7C5FF00280DD1084C97
:10133000012008492070201D01601021818000F0EB
:1013400014FA002110B12170607010BD617010BDE1
:1013500028000020000C014010B5064C207808B190
:10136000607808B1012010BD0248001D00F00AFAA3
:10137000607010BD2800002010B5064C207808B120
:10138000607808B1012010BD0248001D00F007FA86
:10139000607010BD2800002010B5084C217809B1FC
:1013A000617809B1052010BD0221617062680146B3
:1013B000104600F00BFA607010BD000034000020F1
:1013C00030B585B000241C48009401940294039425
:1013D000816941F020018161816901F0200104915E
:1013E000816941F004018161816901F00401049186
:1013F000816941F0080181618069104D00F00800A9
:101400000490002220212846FFF76BF8202000904E
:101410000120CDE901040220039069462846FEF729
:101420006BFF4020CDE90004694628460294FEF790
:1014300063FF05B0002030BD00100240000C0140E9
:1014400010B5FFF7BDFF002814D100F01FF80028E9
:1014500010D10C4C0A496068016020218180402134
:10146000C1800949816000F0EBF9002118B12170B9
:101470006070002010BD012020706170F9E700004D
:10148000000C0140340000205000002010B586B050
:101490000024154800940194029403940494114983
:1014A000059401604721C0E901144FF6FF71C0E9BE
:1014B000031444618461FFF783FC78B94FF48050D2
:1014C000009069460848FFF7E5FC38B9049404A980
:1014D00005480594FFF740FC002800D0012006B025
:1014E00010BD0000002C01405000002070B5094CD8
:1014F00023780BB163780BB1052070BD02236370B4
:1015000013460A4665680146284600F029FA6070CD
:1015100070BD00003C0000207CB50A4C069D26787A
:101520000EB166780EB105207CBD02266670CDE94D
:10153000003513460A4665680146284600F032FA2F
:1015400060707CBD3C0000202DE9FF41114CDDE9BD
:101550000B6594F800C00A9FBCF1000F04D094F80A
:1015600001C0BCF1000F03D0052004B0BDE8F0813C
:101570004FF0020C84F801C0CDE90037CDE90265D7
:1015800013460A4665680146284600F096FA6070E0
:10159000EBE700003C0000207CB50A4C069D267855
:1015A0000EB166780EB105207CBD02266670CDE9CD
:1015B000003513460A4665680146284600F0AAFA37
:1015C00060707CBD3C00002070B586B000241548DA
:1015D0000094019402940394816941F004018161B3
:1015E000816901F004010491816941F00801816180
:1015F00080690D4E00F0080040F20345049000227F
:1016000029463046FEF76DFF01200095CDE9010423
:101610000220039069463046FEF76EFE06B00020B9
:1016200070BD000000100240000C014070B5FFF7D3
:10163000CBFF002815D100F01FF8002811D10C4C69
:101640000A4901256068016085800221C180490244
:1016500001810849C16000F0A3FA002110B1217096
:10166000607070BD2570617070BD0000000C01409D
:101670003C000020A800002030B5204885B08169DA
:1016800041F480518161816901F480510491816943
:1016900041F0040181618069002400F0040004909D
:1016A000A02000900220CDE901040320144D0390F6
:1016B00069462846FEF720FE4020CDE90004694631
:1016C00028460294FEF718FE0F480E4901604FF4B9
:1016D0008271C0E90114C46069150461C0E9054163
:1016E000C46104620A214462C0E90A41FFF7DAF9E1
:1016F000002800D0042005B030BD000000100240DA
:101700000008014000300140A800002030B58FB033
:1017100028216846FEF777FD14210AA8FEF773FD1D
:1017200001210804CDE9001000240294022504914F
:10173000CDE907504FF4E01009906846FFF722F812
:1017400008B172B6FEE70F20CDE90A054FF48060BC
:10175000CDE90C4002210AA80E94FEF757FF00289D
:1017600001D072B6FEE70FB030BD10B540B10368CE
:1017700033B1818800221846FEF7B3FE002010BD69
:10178000012010BD10B540B1036833B1818800223B
:101790001846FEF7A6FE002010BD012010BD10B5B2
:1017A00040B1036833B1818801221846FEF799FEE3
:1017B000002010BD012010BDFEF7A6FEFFF752FD70
:1017C00000F061F8FFF760FDFCE7000070B50D4622
:1017D000040029D0206838B335B3204600F03EF825
:1017E000FEF784FEE1882068FEF776FE0028F9D037
:1017F000A068002600684662E1882068FEF76CFE5B
:101800000128F9D0A0680068406A00F01DFB0A4971
:1018100000F02EFB4FF0FF3100F028FC0749286054
:10182000884203DD296005E0032070BD10F1FF4F01
:1018300000D32E60002070BD287E0C3D00002041AA
:1018400010B548B1016839B1806828B1FFF7FAFADC
:10185000002800D0042010BD032010BD10B50400E6
:101860000FD0206868B1A1880122FEF73AFE01205E
:10187000FEF730FDA18800222068FEF732FE00202E
:1018800010BD032010BD2DE9F8434FF61F000021C5
:1018900000909F237F220846FFF73EFE01244FF46D
:1018A0007E474FF6FF78402C01D23E4600E0464688
:1018B0000125324629462046FFF718FE6D1CEDB281
:1018C0009F2DF6D3641CE4B27F2CECD3BDE8F883E3
:1018D0002DE9FF5F8946009910989046A9B1A3F1C0
:1018E000200BBBF1600F10D2B9F1800F0DD2B8F10F
:1018F000A00F0AD2C7B207EB0901802905D8C0F3AF
:10190000072606EB0800A02803D9032004B0BDE891
:10191000F09F002520E000BF0BFB06500F9900242C
:1019200031F810A014E000BF0AFA04F0000408EB3C
:101930000500C2B209EB0400C1B201D5119B00E061
:10194000129B009800F00CF80028DFD1641CE4B270
:10195000A742E9D86D1CEDB2AE42DDD80020D5E734
:1019600038B51C46050003D0802901D2A02A01D336
:10197000032038BD0B46009200F0A3F90028F8D1EF
:101980002C21284600F0F0F90028F2D1210A28463F
:1019900000F00FFA0028ECD1E1B22846BDE838404B
:1019A00000F007BA2DE9F84F1F46DDE90A6A144630
:1019B00088465FEA00090DD00846B8F1800F09D2C9
:1019C000A02C07D2802F05D2A02E03D2474501D3E9
:1019D000A64202D20320BDE8F88F01464846009691
:1019E00000F06FF90028F6D12C21484600F0BCF930
:1019F0000028F0D1454611E0E9B253462246484658
:101A0000FFF7AEFF0028E6D1E9B25346324648461A
:101A1000FFF7A6FF0028DED16D1CADB2BD42EBD9A9
:101A200011E0E2B2534641464846FFF799FF0028CD
:101A3000D1D1E2B2534639464846FFF791FF00281C
:101A4000C9D1641CA4B2B442EBD90020C3E72DE98C
:101A5000F04F85B01E00DDE9108BDDF848A081460F
:101A600007D0B9F1000F04D00C46154608F0FF0767
:101A70001EE0032005B0BDE8F08F3819802807D993
:101A8000C8F307204119CDB200242844A02812D859
:101A9000CDE903BADDE90E018DE803012A462146AE
:101AA0004846FFF715FF0028E4D13819C4B2761C68
:101AB0003378002BE1D10020DCE72DE9F04F85B031
:101AC0001E46DDE90F59DDF838A0DDF8448014002A
:101AD0008B46074608D03FB11046FEF775FBE9B2CA
:101AE000414388B2802803D9032005B0BDE8F08FB8
:101AF000C0F1800000EBD070CDE90259CDE9006A59
:101B0000C0F3470123465A463846CDF81080FFF708
:101B10009EFFEAE72DE9F84F1C46DDE90A69904689
:101B20000F465FEA000A0DD0802F0BD21046B8F1A5
:101B3000A00F07D2802C05D2A02E03D2BC4201D325
:101B4000464502D20320BDE8F88F02465046009673
:101B500000F0B7F80028F6D12C21504600F004F927
:101B60000028F0D1A6EB0800E41B401C0025641CF3
:101B700044434FEA19260EE009F0FF01504600F0F9
:101B800018F90028DFD13146504600F012F900283C
:101B9000D9D16D1CADB2AC42EEDC0020D3E7000021
:101BA00038B504005FD0E06800285CD020680028C9
:101BB00059D021890022FEF794FC1420FEF78AFBFD
:101BC000218901222068FEF78CFC9620FEF782FB1B
:101BD0000121204600F0C8F8002843D19620FEF7E6
:101BE00079FB1121204600F0BFF800283AD1FF20F0
:101BF000FEF770FB1D49204600F03AF8002831D16D
:101C00003621204600F0B0F800282BD1C82120460C
:101C100000F0CFF8002825D13A21204600F0A4F8A2
:101C200000281FD10521204600F0C3F8002819D153
:101C30002021204600F098F8002813D19F20002290
:101C400000907F231146204600F03BF8002809D180
:101C50002921204600F088F8002803D16420FEF7EF
:101C600039FB002038BD032038BD0000B028000833
:101C70002DE9F0410E465FEA000802D00EB10025C2
:101C800019E00320BDE8F081404600F06DF800281F
:101C9000F8D1002406EBC50708E07868015D4046EE
:101CA00000F087F80028EDD1641CE4B27878A042F7
:101CB000F3D86D1CEDB216F83510FF29E4D10020E1
:101CC000E0E72DE9F0411C46069E15460F465FEA07
:101CD00000080BD0802F09D2A02D07D2802C05D26E
:101CE000A02E03D2BC4201D3AE4202D20320BDE8F3
:101CF000F0812A2100F038F80028F8D10021404670
:101D000000F057F80028F2D13946404600F051F86B
:101D10000028ECD10021404600F04BF80028E6D125
:101D20002146404600F045F80028E0D12B214046EE
:101D300000F01AF80028DAD10021404600F039F806
:101D40000028D4D12946404600F033F80028CED1EF
:101D50000021404600F02DF80028C8D13146404609
:101D6000BDE8F04100F025B813B504001BD0E068D1
:101D7000C8B1E18800222068FEF7B3FBA1880022E9
:101D80002068FEF7AEFB6423012201A9E068FEF79C
:101D90001BFF0028A18820684FF0010205D0FEF744
:101DA000A0FB04201CBD03201CBDFEF79AFB0020F5
:101DB0001CBD13B504001BD0E068C8B1E188012246
:101DC0002068FEF78EFBA18800222068FEF789FBC1
:101DD0006423012201A9E068FEF7F6FE0028A1882D
:101DE00020684FF0010205D0FEF77BFB04201CBDEC
:101DF00003201CBDFEF775FB00201CBD014800F050
:101E000003B900BF0000C07FC10DD1F19E0206DB07
:101E10004FEA002343F0004323FA02F070470042E8
:101E200007D54FEA4001B1F1FE4F02D24FF000005A
:101E3000704710B500F09DF849922480002070474B
:101E40006FEA200070470000B0FA80F310FA03F246
:101E5000C3F19D030AD0D90501EB1220530638BF08
:101E6000704700F1010008BF20F00100704700003A
:101E70004FF47F0C1CEAD0121EBF1CEAD11392EA69
:101E80000C0F93EA0C0F00F0478090EA010F48BF57
:101E900042F480724FF0004C4CEA00204CEA0121E1
:101EA00002EB0302A0FB0113A2F50002002918BFF8
:101EB00043F001035B0028BF4FEA330342EB2242A9
:101EC0005FEA132C4CEBC2502EBFBCEB436FB2F554
:101ED0007C0F70474FEA036CBCF1004F08BF20F045
:101EE0000100B2F57C0F38BF70470BD582F0FF02BE
:101EF00012F5803FC8BF704700F1C040D8BF00F066
:101F00000040704700F5000C5FEA4C0C48BF70477A
:101F1000B0F1C04000F073B890EA010F0CEAD113A1
:101F200048BF42F48072624538BF634504D280EAFC
:101F3000010000F00040704710B500F01AF800BF33
:101F40008900013E00F007B800F009B85FEA410CD3
:101F50005FEA1C6C08D080EA010000F050B85FEA2C
:101F6000400C5FEA1C6CF6D14FF00040A0F58000F9
:101F700070470EF1020E2EF0030E5EF8044B244261
:101F800004D44FEA4102B2F17F4F11D84FEA400327
:101F9000B3F17F4F0CD80ED14FEAD07CB2F17F4F16
:101FA0000CEB4C0C0CF1020C08BF4CEBD17C04E0A8
:101FB0004FF0080C01E04FEAD17C0CEB4C0324FA03
:101FC00003F404F00704B4F1040C06D20EEB840C05
:101FD000BDE810404CF0010C6047DFE80CF007084A
:101FE00002024FF00040A0F5800010BD08464200FC
:101FF00018BFD2F1807288BF00F0004010BDFF21F1
:1020000041EAD050C00570470CF00F03092B08BF00
:10201000082000F051800A2B0BD0082B18BF704706
:1020200008BF1CF0400F0AD04FF000004FF0000135
:1020300070471CF0400F18BF4FF0004070471CF075
:10204000100F08D020F0704300F07F4242EAD30125
:102050004FEA4370704700F0604021F07F4242EA4F
:10206000000201F07F4040EA727070474FF0FF02BB
:1020700012EAD0521CBF92F0FF038B42C2BFD14282
:1020800000EBC1507047002A0AD0002B0BD000296A
:1020900000F00040A4BF40F0FE4040F40000704754
:1020A00000F00040704743024FF00B0C18BF4CF09B
:1020B000806C7FF4A3AE70471CF4801F11D01CF419
:1020C000E02F03D06FEACC31490070474FF0405009
:1020D000EFF3008222F0704242EA000282F30088AD
:1020E00070474FF000007047010202030405060725
:1020F00008090A0B0C0D0E0F101000000000000064
:1021000000000102030406070809000000000000A7
:1021100000000000000000000000000000000010AF
:10212000001000100010001000100000001000004F
:102130000000002800280028000000000000000027
:1021400000000000000000240024007C002400485F
:10215000007C004800480000000000380054005097
:102160000038001400540054003800100000002013
:1021700000540058003000280054001400080000EB
:10218000000000100028002800100034004800481B
:1021900000340000000000100010001000000000DB
:1021A00000000000000000000000000800100020F7
:1021B0000020002000200020002000100008002047
:1021C00000100008000800080008000800080010BF
:1021D000002000100038001000280000000000005F
:1021E0000000000000000000000000100010007C53
:1021F00000100010000000000000000000000000BF
:10220000000000000000000000100010001000009E
:102210000000000000000000003800000000000086
:1022200000000000000000000000000000000000AE
:10223000001000000000000800080010001000104E
:10224000001000200020000000000038004400447E
:102250000054004400440044003800000000001016
:10226000003000500010001000100010001000009E
:102270000000003800440044000400080010002062
:10228000007C000000000038004400040018000436
:102290000004004400380000000000080018002876
:1022A00000280048007C0008000800000000007CB6
:1022B00000400040007800040004004400380000A2
:1022C000000000380044004000780044004400440E
:1022D000003800000000007C00040008001000101E
:1022E00000200020002000000000003800440044CE
:1022F000003800440044004400380000000000386A
:10230000004400440044003C000400440038000045
:1023100000000000000000100000000000000000AD
:10232000001000000000000000000000001000008D
:102330000000000000100010001000000000000C61
:10234000003000400030000C0000000000000000E1
:1023500000000000007C0000007C00000000000085
:102360000000000000000060001800040018006079
:1023700000000000000000380044000400080010C5
:102380000010000000100000000000380044004C65
:102390000054005C004000400038000000000010C5
:1023A0000028002800280028007C00440044000089
:1023B00000000078004400440078004400440044D9
:1023C0000078000000000038004400400040004059
:1023D0000040004400380000000000700048004445
:1023E0000044004400440048007000000000007CED
:1023F00000400040007C004000400040007C0000A5
:102400000000007C00400040007800400040004098
:102410000040000000000038004400400040005C24
:102420000044004400380000000000440044004420
:10243000007C0044004400440044000000000038D8
:1024400000100010001000100010001000380000F4
:102450000000000400040004000400040004004420
:1024600000380000000000440048005000600050A8
:1024700000480048004400000000004000400040C8
:102480000040004000400040007C0000000000448C
:10249000006C006C00540044004400440044000000
:1024A000000000440064006400540054004C004CE0
:1024B0000044000000000038004400440044004490
:1024C000004400440038000000000078004400444C
:1024D0000044007800400040004000000000003848
:1024E0000044004400440044004400540038000408
:1024F0000000007800440044004400780048004890
:102500000044000000000038004400400030000893
:1025100000040044003800000000007C001000109F
:102520000010001000100010001000000000004417
:1025300000440044004400440044004400380000CB
:102540000000004400440044002800280028001037
:1025500000100000000000440044005400540054E7
:10256000006C00280028000000000044002800281B
:102570000010001000280028004400000000004463
:102580000044002800280010001000100010000077
:102590000000007C00040008001000100020004033
:1025A000007C000000000018001000100010001057
:1025B0000010001000100010001800200020001073
:1025C000001000100010000800080000000000309B
:1025D000001000100010001000100010001000107B
:1025E0000030001000280028004400000000000017
:1025F00000000000000000000000000000000000DB
:10260000000000000000000000FE0020001000009C
:1026100000000000000000000000000000000000BA
:10262000000000380044003C0044004C003400002E
:102630000000004000400058006400440044006472
:102640000058000000000000000000380044004076
:102650000040004400380000000000040004003482
:10266000004C00440044004C003400000000000016
:10267000000000380044007C0040004400380000A6
:102680000000000C0010007C001000100010001072
:10269000001000000000000000000034004C004466
:1026A0000044004C00340004007800400040005812
:1026B0000064004400440044004400000000001096
:1026C000000000700010001000100010001000004A
:1026D000000000100000007000100010001000103A
:1026E0000010001000E00040004000480050006072
:1026F000005000480044000000000070001000106E
:102700000010001000100010001000000000000079
:10271000000000780054005400540054005400009D
:102720000000000000000058006400440044004421
:102730000044000000000000000000380044004495
:102740000044004400380000000000000000005871
:102750000064004400440064005800400040000051
:1027600000000034004C00440044004C00340004DD
:1027700000040000000000580064004000400040D9
:10278000004000000000000000000038004400305D
:1027900000080044003800000000002000200078FD
:1027A0000020002000200020001800000000000091
:1027B00000000044004400440044004C0034000089
:1027C0000000000000000044004400280028002809
:1027D00000100000000000000000005400540054ED
:1027E000006C0028002800000000000000000044E9
:1027F0000028001000100028004400000000000025
:1028000000000044004400280028001000100010C0
:10281000006000000000007C000800100020004064
:10282000007C0000000000180010001000100020C4
:102830000020001000100010001800100010001000
:1028400000100010001000100010001000100030E8
:102850000010001000100008000800100010001008
:1028600000300000000000000074004C0000000078
:10287000000000000000012C2D012C2D012C2D0149
:102880002C2D07A20284C50A008A2A8AEE0E0F1A8E
:102890000F182F2820221F1B2337000702100F1BA1
:1028A0000F17332C292E3030393F0007031000005A
:1028B000B103000076280008B20300007928000860
:1028C000B30600007C280008B4010000822800083C
:1028D000C003000083280008C1010000862800080A
:1028E000C202000087280008C302000089280008EF
:1028F000C40200008B280008C50100008D280008D4
:10290000E01000008E280008E11000009E2800085A
:10291000FF0000000000000038290008000000202F
:1029200044000000280100087C2900084400002021
:102930001C07000044010008010000001000000016
:102940000000000000127A000250000001000000A8
:1029500000000000010000000A210008070A000032
:102960000001000000000000000000000005000061
:0C2970004400002000010000980000203E
:04000005080000ED02
:00000001FF
